{
  "contractName": "HelloSolidity",
  "abi": [
    {
      "inputs": [],
      "name": "sayHello",
      "outputs": [
        {
          "internalType": "string",
          "name": "",
          "type": "string"
        }
      ],
      "stateMutability": "view",
      "type": "function",
      "constant": true
    },
    {
      "inputs": [
        {
          "internalType": "string",
          "name": "_newName",
          "type": "string"
        }
      ],
      "name": "changeMyName",
      "outputs": [],
      "stateMutability": "nonpayable",
      "type": "function"
    }
  ],
  "bytecode": "0x60806040526040518060400160405280600881526020017f416e647265616e690000000000000000000000000000000000000000000000008152506000908051906020019061004f929190610062565b5034801561005c57600080fd5b50610166565b82805461006e90610134565b90600052602060002090601f01602090048101928261009057600085556100d7565b82601f106100a957805160ff19168380011785556100d7565b828001600101855582156100d7579182015b828111156100d65782518255916020019190600101906100bb565b5b5090506100e491906100e8565b5090565b5b808211156101015760008160009055506001016100e9565b5090565b7f4e487b7100000000000000000000000000000000000000000000000000000000600052602260045260246000fd5b6000600282049050600182168061014c57607f821691505b602082108114156101605761015f610105565b5b50919050565b6105a2806101756000396000f3fe608060405234801561001057600080fd5b50600436106100365760003560e01c8063bf5665991461003b578063ef5fb05b14610057575b600080fd5b610055600480360381019061005091906102b4565b610075565b005b61005f61008f565b60405161006c9190610385565b60405180910390f35b806000908051906020019061008b9291906100b7565b5050565b606060006040516020016100a3919061053f565b604051602081830303815290604052905090565b8280546100c39061042d565b90600052602060002090601f0160209004810192826100e5576000855561012c565b82601f106100fe57805160ff191683800117855561012c565b8280016001018555821561012c579182015b8281111561012b578251825591602001919060010190610110565b5b509050610139919061013d565b5090565b5b8082111561015657600081600090555060010161013e565b5090565b6000604051905090565b600080fd5b600080fd5b600080fd5b600080fd5b6000601f19601f8301169050919050565b7f4e487b7100000000000000000000000000000000000000000000000000000000600052604160045260246000fd5b6101c182610178565b810181811067ffffffffffffffff821117156101e0576101df610189565b5b80604052505050565b60006101f361015a565b90506101ff82826101b8565b919050565b600067ffffffffffffffff82111561021f5761021e610189565b5b61022882610178565b9050602081019050919050565b82818337600083830152505050565b600061025761025284610204565b6101e9565b90508281526020810184848401111561027357610272610173565b5b61027e848285610235565b509392505050565b600082601f83011261029b5761029a61016e565b5b81356102ab848260208601610244565b91505092915050565b6000602082840312156102ca576102c9610164565b5b600082013567ffffffffffffffff8111156102e8576102e7610169565b5b6102f484828501610286565b91505092915050565b600081519050919050565b600082825260208201905092915050565b60005b8381101561033757808201518184015260208101905061031c565b83811115610346576000848401525b50505050565b6000610357826102fd565b6103618185610308565b9350610371818560208601610319565b61037a81610178565b840191505092915050565b6000602082019050818103600083015261039f818461034c565b905092915050565b600081905092915050565b7f48656c6c6f200000000000000000000000000000000000000000000000000000600082015250565b60006103e86006836103a7565b91506103f3826103b2565b600682019050919050565b7f4e487b7100000000000000000000000000000000000000000000000000000000600052602260045260246000fd5b6000600282049050600182168061044557607f821691505b60208210811415610459576104586103fe565b5b50919050565b60008190508160005260206000209050919050565b600081546104818161042d565b61048b81866103a7565b945060018216600081146104a657600181146104b7576104ea565b60ff198316865281860193506104ea565b6104c08561045f565b60005b838110156104e2578154818901526001820191506020810190506104c3565b838801955050505b50505092915050565b7f2100000000000000000000000000000000000000000000000000000000000000600082015250565b60006105296001836103a7565b9150610534826104f3565b600182019050919050565b600061054a826103db565b91506105568284610474565b91506105618261051c565b91508190509291505056fea2646970667358221220904a797a816079102f56975241b26baf443c41fe83c3f6510ff3d1686979749064736f6c634300080b0033",
  "immutableReferences": {},
  "source": "// SPDX-License-Identifier: MIT\r\npragma solidity >=0.4.22 <0.9.0;\r\n\r\ncontract HelloSolidity {\r\n  string myName = \"Andreani\";\r\n\r\n  function sayHello() public view returns(string memory) {\r\n    return string(abi.encodePacked(\"Hello \", myName, \"!\"));\r\n  }\r\n  \r\n  function changeMyName(string memory _newName) public {\r\n    myName = _newName;\r\n  }\r\n}",
  "sourcePath": "D:\\Tato\\git\\solidity-first-steps\\contracts\\HelloSolidity.sol",
  "compiler": {
    "name": "solc",
    "version": "0.8.11+commit.d7f03943.Emscripten.clang"
  },
  "schemaVersion": "3.4.4",
  "updatedAt": "2022-02-04T01:59:17.680Z",
  "networkType": "ethereum",
  "devdoc": {
    "kind": "dev",
    "methods": {},
    "version": 1
  },
  "userdoc": {
    "kind": "user",
    "methods": {},
    "version": 1
  }
}